:040000000C94003A22
:1074000011248FEF98E09EBF8DBF94B714BE892FD3
:107410008D7011F0892FE0D190E89093F20083E90C
:107420008093F2009093610081E08093610096BFA9
:107430008CE486BF85E08093810088E18093C10061
:1074400086E08093C20080E18093C4008DE0AED1DD
:10745000259A96E020E33CEF51E040E2309385002E
:107460002093840056BBB09BFECF85B1842785B99D
:10747000A895915099F7662477244301CC24DD2404
:1074800064E9A62E51E0252E312C412C512C7DD1C2
:10749000813461F47AD1182F8FD1123829F1113843
:1074A00011F485E001C083E068D164C1823411F435
:1074B00084E103C0853419F485E086D15BC185354C
:1074C00079F463D1E82EFF2460D1082F10E0102F4B
:1074D00000270E291F29000F111F6ED168014AC114
:1074E000863521F484E070D180E0DECF843609F067
:1074F000C5C04BD190E0F82EEE2447D1E80EF11C28
:1075000044D1B82EE70100E011E03FD1F8018193AA
:107510008F012197D1F711BC8D2D992782BD82B59E
:1075200086958695282FD401C301022E04C0B695F6
:10753000A795979587950A94D2F780FD15C0F6E434
:10754000BF1691F4D201C10104C0880F991FAA1F70
:10755000BB1F2A95D2F7682A792A8A2A9B2AAFBAB2
:1075600082E98FBB0000000027D1E5E4BE16B1F42C
:10757000960110C021BD2F5F3F4F832F992782BDF9
:10758000C050DF4F888180BDF4E0FFBB82E08FBB3D
:10759000CF5FD040CE15DF0568F3DBC0C114D10446
:1075A00009F04EC06091000170910101872F90E0B9
:1075B000982F8827262F30E0822B932B90938501DC
:1075C000809384014091020150910301852F90E046
:1075D000982F8827242F30E0822B932B90938701BC
:1075E00080938601209118018091190190E0982FD5
:1075F000882730E0822B932B909389018093880118
:1076000020911A0180911B0190E0982F882730E08B
:10761000822B932B90938B0180938A0160931801A6
:107620007093190140931A0150931B018CE08093D1
:107630000001A092010110920201EAE3E09303012C
:10764000E0E0F1E011BC808180BD81E081BD8181FD
:1076500080BD82E081BD828180BD83E081BD838168
:1076600080BD8E2F8C0D81BD84EA8FBB82EA8FBBDB
:10767000349681E0E038F80729F77CC0843709F0B8
:107680006BC083D090E0F82EEE247FD0E80EF11C82
:107690007CD0182F91D0153489F4E6018701C1BD43
:1076A00021968D2F992782BDE1E0EFBB00000000FD
:1076B00080B563D00150104091F74BC0E6018701BF
:1076C000209729F480918401909185013CC0C130BC
:1076D000D10529F480918401909185010FC0C230B9
:1076E000D10529F480918601909187012CC0C33087
:1076F000D10539F48091860190918701892F9927CE
:1077000022C0C831D10529F4809188019091890166
:107710001AC0C931D10529F480918801909189015D
:10772000EDCFCA31D10529F480918A0190918B0166
:107730000AC0CB31D10529F480918A0190918B0147
:10774000DDCFFE018491219618D00150104009F040
:10775000B7CFCE0CDF1C0EC0853739F42DD08EE1AB
:107760000CD085E90AD08FE09FCE813511F48CE0F2
:107770001DD022D080E101D08ACE982F8091C00008
:1077800085FFFCCF9093C60008958091C00087FFCD
:10779000FCCF8091C00084FD01C0A8958091C600F7
:1077A00008959AE29A95F1F708950895E0E6F0E0D9
:1077B00098E1908380830895E8DF803219F08DE0AE
:1077C000F5DFFFCF84E1D9CF1F93182FDEDF1150F3
:1077D000E9F7F2DF1F910895282E80E0E7DFECE063
:0477E000FF270994E2
:0277FE00000584
:040000030000740085
:00000001FF
