:02000000FFCD32
:101C000011248FEF94E09EBF8DBF80E88093620027
:101C10008CE48093620094B714BE892F8D7011F00C
:101C2000892F92D190E89093F20083E98093F2009B
:101C30009093F20087E98093F2009093F20087EB93
:101C40008093F200909361001092610085E0809390
:101C500081008091EE0083609093EE008093EE000F
:101C600088E18093C10086E08093C20080E1809388
:101C7000C4008CE053D1259A96E020E33CEF51E07C
:101C800040E2309385002093840056BBB09BFECF8A
:101C900085B1842785B9A895915099F7882499240E
:101CA000CC24DD24AA24A39441E0642E712C442486
:101CB0004A943DEC332E24E0222E92E9592E1DD178
:101CC000813461F41AD1182F2FD1123829F111382B
:101CD00011F485E001C083E008D104C1823411F41D
:101CE00084E103C0853419F485E026D1FBC0853535
:101CF00079F403D1E82EFF2400D1082F10E0102F33
:101D000000270E291F29000F111F0ED16801EAC0FC
:101D1000863521F484E010D180E0DECF843609F0EE
:101D200087C0EBD090E0F82EEE24E7D0E80EF11C4F
:101D3000E4D0B82EE70100E011E0DFD0F801819394
:101D40008F012197D1F711BC8D2D992782BD82B5C6
:101D500086958695930102C0220F331F8A95E2F77C
:101D6000C40182239323892B51F4F6E4BF1639F47E
:101D7000822A932A84E98FBB5FBA00000000D4D086
:101D8000E5E4BE16A9F496010FC021BD2F5F3F4FB9
:101D9000832F992782BDC050DF4F888180BD2FBA25
:101DA000F2E0FFBBCF5FD040CE15DF0570F389C0F6
:101DB000C114D10441F5809100012091010130E06E
:101DC000322F222790E0282B392B30934501209386
:101DD0004401409108018091090190E0982F8827E3
:101DE00050E0842B952B909347018093460124501B
:101DF000304020930801232F33272093090140927C
:101E0000000130920101E0E0F1E011BC808180BD71
:101E1000A1BC818180BD8E2F8C0D81BD84EA8FBBDA
:101E200082EA8FBB329681E0E034F80771F75AC03E
:101E3000843709F049C061D090E0F82EEE245DD0DF
:101E4000E80EF11C5AD0182F6FD0153481F4E6013A
:101E50008701C1BD21968D2F992782BDAFBA0000A1
:101E6000000080B542D00150104099F72AC0E60129
:101E70008701209729F480914401909145011CC06D
:101E8000C130D10529F480914401909145010FC0E2
:101E9000C830D10529F480914601909147010CC0CA
:101EA000C930D10539F48091460190914701892FBD
:101EB000992702C0FE018491219617D0015010404D
:101EC000C1F6CE0CDF1C0EC0853739F42DD08EE163
:101ED0000CD083E90AD08AE0FFCE813511F48CE082
:101EE0001DD022D080E101D0EACE982F8091C00091
:101EF00085FFFCCF9093C60008958091C00087FFB6
:101F0000FCCF8091C00084FD01C0A8958091C600DF
:101F100008959AE29A95F1F708950895E0E6F0E0C1
:101F200098E1908380830895E8DF803219F08CE097
:101F3000F5DFFFCF84E1D9CF1F93182FDEDF1150DB
:101F4000E9F7F2DF1F910895282E80E0E7DFE4E053
:041F5000FF270994CA
:021FFA000005E0
:0400000300001C00DD
:00000001FF
